:100000000C942A000C943C000C943C000C943C0092
:100010000C943C000C943C000C943C000C943C0070
:100020000C943C000C943C000C947F000C943E001B
:100030000C943C000C943C000C943C000C943C0050
:100040000C943C000C943C000C943C000C943C0040
:100050000C943C0011241FBECFE5D8E0DEBFCDBF1D
:1000600020E0A0E6B0E001C01D92A236B207E1F7A1
:100070000E9491000C9496000C9400001F920F9225
:1000800000905F000F9211242F933F938F939F93C3
:10009000EF93FF93CF93DF93CDB7DEB782E590E088
:1000A00026E0FC0120838091600090916100019620
:1000B0009093610080936000809160009091610056
:1000C000803D974071F4109261001092600085E3CA
:1000D00090E025E330E0F901308121E02327FC01A5
:1000E0002083DF91CF91FF91EF919F918F913F916D
:1000F0002F910F9000925F000F901F9018951F9204
:100100000F9200905F000F921124CF93DF93CDB731
:10011000DEB7DF91CF910F9000925F000F901F909C
:100120001895CF93DF93CDB7DEB7FFCFF894FFCF0D
:00000001FF
