S00B00004D50542E7372656328
S11300000C942A000C943C000C943C000C943C008E
S11300100C943C000C943C000C943C000C943C006C
S11300200C943C000C943C000C94ED000C94AB003C
S11300300C943C000C943C000C943C000C943C004C
S11300400C943C000C943C000C943C000C943C003C
S11300500C943C0011241FBECFE5D8E0DEBFCDBF19
S113006020E0A0E6B0E001C01D92A236B207E1F79D
S11300700E9400010C9407010C940000CF93DF93BD
S113008000D01F92CDB7DEB79B838A8383E590E0CF
S113009023E530E0F90120812360FC01208382E51F
S11300A090E026E0FC0120838CE590E0FC011082C6
S11300B089E590E0FC01108219828A819B81892B59
S11300C021F188E590E0FC018081882F90E0817027
S11300D09927892BB1F388E590E028E530E0F90110
S11300E020812160FC01208389818F5F898382E5DF
S11300F090E026E0FC0120838981282F30E08A816A
S11301009B812817390718F4DCCF000001C00000D8
S11301100F900F900F90DF91CF910895CF93DF93BD
S1130120CDB7DEB784E390E02FEFFC01208385E3B5
S113013090E02FEFFC01208385E390E025E330E09D
S1130140F901308121E02327FC01208388EC90E031
S11301500E943E00F1CF1F920F9200905F000F9219
S113016011242F933F938F939F93EF93FF93CF93F8
S1130170DF93CDB7DEB782E590E026E0FC01208373
S1130180809160009091610001969093610080934A
S113019060008091600090916100803D974071F40F
S11301A0109261001092600085E390E025E330E056
S11301B0F901308121E02327FC0120830000DF9135
S11301C0CF91FF91EF919F918F913F912F910F903C
S11301D000925F000F901F9018951F920F9200904D
S11301E05F000F921124CF93DF93CDB7DEB70000E9
S11301F0DF91CF910F9000925F000F901F901895A0
S1130200CF93DF93CDB7DEB70E948E00FFCFF89473
S1050210FFCF1A
S9030000FC
