S00B00004D50542E7372656328
S11300000C942A000C9447000C9447000C94B30001
S11300100C9447000C9447000C9447000C94470040
S11300200C9447000C9447000C948B000C944900EA
S11300300C9447000C94DE000C9447000C94470089
S11300400C9447000C9447000C9447000C94470010
S11300500C94470011241FBECFE5D8E0DEBFCDBF0E
S113006011E0A0E6B0E0E6ECFCE002C005900D92E1
S1130070AC34B107D9F721E0ACE4B1E001C01D9282
S1130080A535B207E1F70E94BA030C9461060C94FB
S113009000001F920F9200905F000F9211242F9383
S11300A03F938F939F93EF93FF93CF93DF93CDB7BA
S11300B0DEB782E590E026E0FC01208380914F01C9
S11300C09091500101969093500180934F0180913B
S11300D04F0190915001803D974071F4109250016E
S11300E010924F0185E390E025E330E0F90130817F
S11300F021E02327FC0120830000DF91CF91FF91B1
S1130100EF919F918F913F912F910F9000925F00FB
S11301100F901F9018951F920F9200905F000F92FE
S113012011248F939F93EF93FF93CF93DF93CDB7D6
S1130130DEB780914D0190914E01019690934E014E
S113014080934D0182E590E0FC0110820000DF9174
S1130150CF91FF91EF919F918F910F9000925F004B
S11301600F901F9018951F920F9200905F000F92AE
S113017011242F933F938F939F93EF93FF93CF93E8
S1130180DF93CDB7DEB783E080934C018BE590E03D
S11301902BE530E0F90120812F7DFC012083000054
S11301A0DF91CF91FF91EF919F918F913F912F918B
S11301B00F9000925F000F901F9018951F920F925E
S11301C000905F000F9211242F933F934F935F93FE
S11301D06F937F938F939F93AF93BF93EF93FF930B
S11301E0CF93DF93CDB7DEB78CE290E0FC01808142
S11301F0883621F486E690E00E94D5040000DF9161
S1130200CF91FF91EF91BF91AF919F918F917F918A
S11302106F915F914F913F912F910F9000925F00EA
S11302200F901F901895CF93DF9300D0CDB7DEB712
S11302308A8383E590E023E530E0F901208125609D
S1130240FC01208382E590E024E6FC0120838CE518
S113025090E0FC01108289E590E0FC011082198293
S11302608A81882301F188E590E0FC018081882F50
S113027090E081709927892BB1F388E590E028E517
S113028030E0F90120812160FC01208389818F5FA6
S1130290898382E590E024E6FC01208399818A81A8
S11302A0981718F4E0CF000001C000000F900F90E1
S11302B0DF91CF910895CF93DF93CDB7DEB7289721
S11302C00FB6F894DEBF0FBECDBF9E838D837887B3
S11302D06F8381E090E09A8389831C821B8212C021
S11302E049815A812D813E81429FC001439F900DD7
S11302F0529F900D11249A8389838B819C8101964E
S11303009C838B832B813C818F81988528173907A7
S11303103CF389819A8128960FB6F894DEBF0FBE0C
S1130320CDBFDF91CF910895CF93DF93CDB7DEB7E3
S11303302A970FB6F894DEBF0FBECDBF9A87898780
S113034089859A859A8389831B8214C08B81882F1F
S113035090E0BC018AE090E00E945B019C018985E9
S11303609A85B9010E94FB04CB019A8389838B810E
S11303708F5F8B8389819A81892B41F78B818430AC
S113038010F484E08B838B818E5F8B838B81882F29
S113039090E00E9440059E838D838B81882F90E09E
S11303A001972D813E81820F931FFC0110828B8166
S11303B082508C8352C08C81282F880F330B8B8101
S11303C0882F90E005972817390771F48CE28F8302
S11303D08C81082E000C990B2D813E81820F931F76
S11303E02F81FC01208336C049855A859A01ADECE2
S11303F0BCEC0E94310596958795969587959695C0
S11304008795880F991F9C01220F331F220F331FDA
S1130410820F931F9A01281B390BC901805D8887BD
S11304208C81082E000C990B2D813E81820F931F25
S11304302885FC01208389859A859C01ADECBCEC60
S11304400E943105969587959695879596958795FB
S11304509A8789878C8181508C838C8188230CF0C6
S1130460AACF8D819E812A960FB6F894DEBF0FBE67
S1130470CDBFDF91CF9108950F931F93CF93DF9357
S113048000D000D0CDB7DEB787E390E0FC01108246
S113049084E390E02FEFFC01208385E390E02FEFCD
S11304A0FC01208300E815E220E030E041E060E058
S11304B088E00E94C1038AE290E02AE230E0F90178
S11304C020812068FC01208383E590E021E0FC0189
S11304D0208389E590E029E530E0F9012081FC01E1
S11304E020838CE590E0FC01108282E590E0FC0121
S11304F0108281E089831A82789487EC90E00E94CC
S1130500D50480914C01882F90E08130910509F445
S113051042C0823091051CF4892B49F020C18230FD
S1130520910509F4B2C0039709F4BEC018C186E36B
S113053090E0FC01808188230CF018C187ED90E0E5
S11305400E94D50481E080934C0182E590E0FC0197
S113055090818DEC989F812D1124869586958695A2
S1130560880F282F220F220F820FF92FF81B8F2FAD
S11305708F5F898382E590E0FC01808187708A83A4
S113058085E00E941301000086E390E0FC01808175
S11305908823D4F3EBC08FED90E00E94D5049981B9
S11305A084E6989F802D11240E94130186E390E035
S11305B0FC018081882F90E080749927892B51F465
S11305C086E390E0FC018081882F90E08470992775
S11305D0892B41F087EE90E00E94D50483E080935C
S11305E04C01C7C083E590E023E530E0F9012081A8
S11305F02360FC01208383E590E023E530E0F901EA
S113060020812B7FFC01208389E590E029E530E0FF
S1130610F90120812260FC0120838CE590E029EF20
S1130620FC01208310924E0110924D0182E590E06E
S1130630FC01108282E080934C0185E390E025E385
S113064030E0F9012081622F2A81422F50E021E01D
S113065030E002C0220F331F4A95E2F7209526238B
S1130660FC0120838BE590E02BE530E0F90120814B
S11306702062FC01208384E590E024E530E0F90168
S113068020812064FC01208374C086E390E0FC0197
S11306908081882F90E080749927892B09F468C0A1
S11306A083E080934C0164C08FE091E00E94D50404
S11306B089E590E029E530E0F90120812D7FFC01F6
S11306C0208380914D0190914E010E9494019C835E
S11306D08B8387E191E00E94D5048B819C810E94E9
S11306E0D50481E391E00E94D50410924C018B81E2
S11306F09C810E94D80587EC90E00E94D50485E394
S113070090E02FEFFC01208383E590E021E0FC01E1
S1130710208389E590E029E530E0F9012081FC019E
S113072020838CE590E0FC01108282E590E0FC01DE
S11307301082000086E390E0FC018081882F90E025
S113074080749927892BB1F786E390E0FC018081BE
S1130750882F90E084709927892B61F70AC087E37A
S113076091E00E94D50410924C0103C00000C9CE50
S11307700000C7CECF93DF93CDB7DEB70E943C0213
S1130780FFCF0F931F93CF93DF93CDB7DEB7279798
S11307900FB6F894DEBF0FBECDBF89836A834B8347
S11307A00C831D832E833F838A81813051F480E43E
S11307B090E020E430E0F90120812062FC012083F4
S11307C015C08A81823051F480E490E020E430E066
S11307D0F90120812063FC01208308C080E490E0BB
S11307E020E430E0F9012081FC0120838B818130F9
S11307F049F480E490E020E430E0F9012081FC0138
S113080020830CC08B81823049F480E490E020E4A2
S113081030E0F90120812860FC0120838981882F40
S113082090E087309105C9F08830910534F4853023
S11308309105D1F1069739F038C088309105B9F0A7
S11308400997F9F032C080E490E020E430E0F90147
S113085020812260FC01208328C080E490E020E411
S113086030E0F90120812460FC0120831EC080E473
S113087090E020E430E0F90120812660FC0120832F
S113088014C08AE290E02AE230E0F9012081246079
S1130890FC01208380E490E020E430E0F901208131
S11308A02660FC01208301C0000009E210E08C8175
S11308B09D81AE81BF81880F991FAA1FBB1F880F1E
S11308C0991FAA1FBB1F880F991FAA1FBB1F880F40
S11308D0991FAA1FBB1F9C01AD0180E094E2A4EF05
S11308E0B0E0BC01CD010E940F05DA01C9018150BD
S11308F0F801808300E410E08C819D81AE81BF818A
S1130900880F991FAA1FBB1F880F991FAA1FBB1FFF
S1130910880F991FAA1FBB1F880F991FAA1FBB1FEF
S11309209C01AD0180E094E2A4EFB0E0BC01CD01F4
S11309300E940F05DA01C9010197A109B109892FA4
S11309409A2FAB2FBB27F80180838AE290E02AE23A
S113095030E0F90120812861FC0120830000279602
S11309600FB6F894DEBF0FBECDBFDF91CF911F91BC
S11309700F910895CF93DF931F92CDB7DEB789838C
S113098000008BE290E0FC018081882F90E080726F
S11309909927892BB1F38CE290E02981FC01208313
S11309A000000F90DF91CF910895CF93DF9300D093
S11309B000D0CDB7DEB79C838B838B819C819A83D7
S11309C089830BC089819A81FC0180810E94BA04C9
S11309D089819A8101969A83898389819A81FC010C
S11309E08081882379F700000F900F900F900F906B
S11309F0DF91CF910895AA1BBB1B51E107C0AA1F29
S1130A00BB1FA617B70710F0A61BB70B881F991FAB
S1130A105A95A9F780959095BC01CD010895A1E25E
S1130A201A2EAA1BBB1BFD010DC0AA1FBB1FEE1F64
S1130A30FF1FA217B307E407F50720F0A21BB30BAF
S1130A40E40BF50B661F771F881F991F1A9469F72B
S1130A5060957095809590959B01AC01BD01CF0187
S1130A600895A29FB001B39FC001A39F700D811D83
S1130A701124911DB29F700D811D1124911D0895A3
S1130A800F931F93CF93DF938230910510F482E08C
S1130A9090E0E0915301F091540120E030E0A0E0B7
S1130AA0B0E0309719F140815181028113814817D8
S1130AB05907C8F08417950769F4109731F0129616
S1130AC00C93129713961C9327C000935301109311
S1130AD0540122C02115310519F04217530718F4A7
S1130AE09A01BD01EF01DF01F801DBCF21153105CA
S1130AF0F9F0281B390B2430310580F48A819B815D
S1130B006115710521F0FB019383828304C09093E6
S1130B10540180935301FE01329644C0FE01E20F5A
S1130B20F31F8193919322503109398328833AC06A
S1130B302091510130915201232B41F42091620004
S1130B403091630030935201209351012091600051
S1130B50309161002115310541F42DB73EB7409124
S1130B60640050916500241B350BE0915101F09114
S1130B705201E217F307A0F42E1B3F0B2817390785
S1130B8078F0AC014E5F5F4F2417350748F04E0FE5
S1130B905F1F50935201409351018193919302C07E
S1130BA0E0E0F0E0CF01DF91CF911F910F91089524
S1130BB0CF93DF93009709F481C0FC01329713822D
S1130BC01282A0915301B0915401109781F42081B5
S1130BD03181820F931F20915101309152012817C6
S1130BE0390751F5F0935201E093510167C0ED01CB
S1130BF020E030E0CE17DF0740F44A815B819E019C
S1130C0041155105F1F0EA01F5CFD383C283408148
S1130C105181840F951FC817D90759F48881998188
S1130C20840F951F0296918380838A819B8193838D
S1130C3082832115310529F4F0935401E093530183
S1130C403DC0E901FB83EA8349915991C40FD51F43
S1130C50EC17FD0761F480819181840F951F029642
S1130C60E90199838883828193819B838A83E0E06D
S1130C70F0E012968D919C911397009719F0FD0165
S1130C80DC01F7CF8D919C9111979D012E5F3F4F11
S1130C90820F931F20915101309152012817390777
S1130CA069F4309729F4109254011092530102C050
S1130CB013821282B0935201A0935101DF91CF911C
S1090CC00895F894FFCF33
S1130CC60000550120005461737465722037206951
S1130CD673742053746172740A5461737465722058
S1130CE636206973742053746F7070284E6F726D5A
S1130CF6616C290A546173746572203220697374B5
S1130D062053746F707028496E7465727570742000
S1130D167665726172626569746574206D697420A2
S1130D26494E5432290A005374617274206472FC69
S1130D36636B656E3A0A0053746174652030005320
S1130D46746174652031004E696D6D206469652097
S1130D56426F7474656E2077656720756E642042F1
S1130D6665736368656973206E69636874210053EB
S1130D76746174652033004465696E65205265614B
S1130D866B74696F6E737A6569742073696E642017
S1130D960073656B2E0A004665686C657220617582
S10F0DA666676574726574656E210A004E
S9030000FC
