:100000000C942A000C9447000C9447000C94B30005
:100010000C9447000C9447000C9447000C94470044
:100020000C9447000C9447000C948B000C944900EE
:100030000C9447000C94CB000C9447000C944700A0
:100040000C9447000C9447000C9447000C94470014
:100050000C94470011241FBECFE5D8E0DEBFCDBF12
:1000600011E0A0E6B0E0E0E7FCE002C005900D92F0
:10007000AC33B107D9F721E0ACE3B1E001C01D9288
:10008000A534B207E1F70E948F030C9436060C9456
:1000900000001F920F9200905F000F9211242F9387
:1000A0003F938F939F93EF93FF93CF93DF93CDB7BE
:1000B000DEB782E590E026E0FC01208380913F01DD
:1000C0009091400101969093400180933F0180916F
:1000D0003F0190914001803D974071F410924001A2
:1000E00010923F0185E390E025E330E0F901308193
:1000F00021E02327FC0120830000DF91CF91FF91B5
:10010000EF919F918F913F912F910F9000925F00FF
:100110000F901F9018951F920F9200905F000F9202
:1001200011248F939F93EF93FF93CF93DF93CDB7DA
:10013000DEB780913D0190913E01019690933E0182
:1001400080933D0182E590E0FC0110820000DF9188
:10015000CF91FF91EF919F918F910F9000925F004F
:100160000F901F9018951F920F9200905F000F92B2
:1001700011248F93CF93DF93CDB7DEB783E08093C5
:100180003C010000DF91CF918F910F9000925F00B2
:100190000F901F9018951F920F9200905F000F9282
:1001A00011242F933F934F935F936F937F938F937C
:1001B0009F93AF93BF93EF93FF93CF93DF93CDB70D
:1001C000DEB78CE290E0FC018081883621F486E67F
:1001D00090E00E94AA040000DF91CF91FF91EF917F
:1001E000BF91AF919F918F917F916F915F914F914F
:1001F0003F912F910F9000925F000F901F901895E4
:10020000CF93DF9300D0CDB7DEB78A8383E590E04C
:1002100023E530E0F90120812560FC01208382E59F
:1002200090E024E6FC0120838CE590E0FC01108244
:1002300089E590E0FC01108219828A81882301F10E
:1002400088E590E0FC018081882F90E081709927FB
:10025000892BB1F388E590E028E530E0F9012081B1
:100260002160FC01208389818F5F898382E590E092
:1002700024E6FC01208399818A81981718F4E0CF45
:10028000000001C000000F900F90DF91CF91089502
:10029000CF93DF93CDB7DEB728970FB6F894DEBFC4
:1002A0000FBECDBF9E838D8378876F8381E090E002
:1002B0009A8389831C821B8212C049815A812D81B5
:1002C0003E81429FC001439F900D529F900D11248B
:1002D0009A8389838B819C8101969C838B832B815C
:1002E0003C818F819885281739073CF389819A8151
:1002F00028960FB6F894DEBF0FBECDBFDF91CF9129
:100300000895CF93DF93CDB7DEB72A970FB6F89451
:10031000DEBF0FBECDBF9A87898789859A859A836C
:1003200089831B8214C08B81882F90E0BC018AE0F6
:1003300090E00E9448019C0189859A85B9010E943C
:10034000D004CB019A8389838B818F5F8B838981D2
:100350009A81892B41F78B81843010F484E08B8360
:100360008B818F5F8B838B81882F90E00E94150596
:100370009E838D838B8181508C8352C08C81282FEA
:10038000880F330B8B81882F90E00497281739074B
:1003900071F48CE28F838C81082E000C990B2D81D7
:1003A0003E81820F931F2F81FC01208336C0498537
:1003B0005A859A01ADECBCEC0E940605969587958E
:1003C0009695879596958795880F991F9C01220F82
:1003D000331F220F331F820F931F9A01281B390BE3
:1003E000C901805D88878C81082E000C990B2D81B6
:1003F0003E81820F931F2885FC01208389859A8581
:100400009C01ADECBCEC0E940605969587959695EF
:100410008795969587959A8789878C8181508C835B
:100420008C8188230CF0AACF8D819E812A960FB6ED
:10043000F894DEBF0FBECDBFDF91CF9108950F932B
:100440001F93CF93DF9300D000D0CDB7DEB787E303
:1004500090E0FC01108284E390E02FEFFC01208308
:1004600000E815E220E030E041E060E088E00E9432
:1004700096038AE290E02AE230E0F90120812068C8
:10048000FC01208383E590E021E0FC01208389E5E5
:1004900090E029E530E0F9012081FC0120838CE522
:1004A00090E0FC01108282E590E0FC01108281E086
:1004B0008A83198287EC90E09C838B8380913C0136
:1004C000882F90E08130910509F454C08230910565
:1004D0001CF4892B49F018C18230910509F4CDC074
:1004E000039709F4D9C010C18EEC90E00E94AA04D1
:1004F00086E390E0FC01808188230CF00CC181E050
:1005000080933C0182E590E0FC0190818DEC989F06
:10051000812D1124869586958695880F282F220F88
:10052000220F820FF92FF81B8F2F8F5F8A8382E5AE
:1005300090E0FC01908185E2989F812D1124292F64
:10054000281B2695820F282F26952695822F880F07
:10055000880F880F821BF92FF81B8F2F898380E06B
:100560000E940001000086E390E0FC018081882366
:10057000D4F3D1C080E00E94000186E390E0FC014A
:100580008081882F90E080749927892B51F486E32D
:1005900090E0FC018081882F90E084709927892B5E
:1005A000C9F08EED90E00E94AA04000086E390E07E
:1005B000FC018081882F90E080749927892BB1F706
:1005C00086E390E0FC018081882F90E08470992779
:1005D000892B61F783E590E023E530E0F901208184
:1005E0002360FC01208383E590E023E530E0F901FE
:1005F00020812B7FFC01208389E590E029E530E014
:10060000F90120812260FC0120838CE590E029EF34
:10061000FC01208310923E0110923D0182E0809304
:100620003C01789485E390E025E330E0F9012081F6
:10063000622F2981422F50E021E030E002C0220FDA
:10064000331F4A95E2F7262BFC01208382E590E0D8
:10065000FC0110828BE590E02BE530E0F901208170
:100660002062FC01208384E590E024E530E0F9017C
:1006700020812064FC01208351C086E390E0FC01CE
:100680008081882F90E080749927892B09F445C0D8
:1006900083E080933C0141C08BE590E02BE530E0A6
:1006A000F90120812F7DFC01208389E590E029E577
:1006B00030E0F90120812D7FFC01208380913D01F4
:1006C00090913E010E9481019C838B8386E091E0A2
:1006D0000E94AA048B819C810E94AA0480E291E07E
:1006E0000E94AA0410923C018B819C810E94AD055E
:1006F000000086E390E0FC018081882F90E0807408
:100700009927892BB1F70AC086E291E00E94AA04DA
:1007100010923C0103C00000D1CE0000CFCECF9399
:10072000DF93CDB7DEB70E941F02FFCF0F931F9359
:10073000CF93DF93CDB7DEB727970FB6F894DEBF20
:100740000FBECDBF89836A834B830C831D832E83A9
:100750003F838A81813051F480E490E020E430E0EE
:10076000F90120812062FC01208315C08A8182303A
:1007700051F480E490E020E430E0F901208120632E
:10078000FC01208308C080E490E020E430E0F9011F
:100790002081FC0120838B81813049F480E490E04A
:1007A00020E430E0F9012081FC0120830CC08B8122
:1007B000823049F480E490E020E430E0F9012081C7
:1007C0002860FC0120838981882F90E08730910583
:1007D000C9F08830910534F485309105D1F1069740
:1007E00039F038C088309105B9F00997F9F032C076
:1007F00080E490E020E430E0F90120812260FC01F7
:10080000208328C080E490E020E430E0F9012081DA
:100810002460FC0120831EC080E490E020E430E0EE
:10082000F90120812660FC01208314C08AE290E057
:100830002AE230E0F90120812460FC01208380E479
:1008400090E020E430E0F90120812660FC01208363
:1008500001C0000009E210E08C819D81AE81BF8162
:10086000880F991FAA1FBB1F880F991FAA1FBB1FA4
:10087000880F991FAA1FBB1F880F991FAA1FBB1F94
:100880009C01AD0180E094E2A4EFB0E0BC01CD0199
:100890000E94E404DA01C9018150F801808300E478
:1008A00010E08C819D81AE81BF81880F991FAA1FA6
:1008B000BB1F880F991FAA1FBB1F880F991FAA1F54
:1008C000BB1F880F991FAA1FBB1F9C01AD0180E0B1
:1008D00094E2A4EFB0E0BC01CD010E94E404DA018F
:1008E000C9010197A109B109892F9A2FAB2FBB2705
:1008F000F80180838AE290E02AE230E0F901208169
:100900002861FC012083000027960FB6F894DEBF13
:100910000FBECDBFDF91CF911F910F910895CF935F
:10092000DF931F92CDB7DEB7898300008BE290E0A2
:10093000FC018081882F90E080729927892BB1F388
:100940008CE290E02981FC01208300000F90DF9170
:10095000CF910895CF93DF9300D000D0CDB7DEB70D
:100960009C838B838B819C819A8389830BC0898133
:100970009A81FC0180810E948F0489819A8101966D
:100980009A83898389819A81FC018081882379F700
:1009900000000F900F900F900F90DF91CF9108956E
:1009A000AA1BBB1B51E107C0AA1FBB1FA617B70795
:1009B00010F0A61BB70B881F991F5A95A9F78095B1
:1009C0009095BC01CD010895A1E21A2EAA1BBB1B74
:1009D000FD010DC0AA1FBB1FEE1FFF1FA217B3070B
:1009E000E407F50720F0A21BB30BE40BF50B661F21
:1009F000771F881F991F1A9469F7609570958095E5
:100A000090959B01AC01BD01CF010895A29FB0015B
:100A1000B39FC001A39F700D811D1124911DB29F32
:100A2000700D811D1124911D08950F931F93CF9375
:100A3000DF938230910510F482E090E0E091430171
:100A4000F091440120E030E0A0E0B0E0309719F1EF
:100A5000408151810281138148175907C8F08417DA
:100A6000950769F4109731F012960C93129713962C
:100A70001C9327C0009343011093440122C0211509
:100A8000310519F04217530718F49A01BD01EF011F
:100A9000DF01F801DBCF21153105F9F0281B390BF7
:100AA0002430310580F48A819B816115710521F024
:100AB000FB019383828304C090934401809343019C
:100AC000FE01329644C0FE01E20FF31F8193919321
:100AD00022503109398328833AC020914101309155
:100AE0004201232B41F42091620030916300309346
:100AF0004201209341012091600030916100211555
:100B0000310541F42DB73EB7409164005091650026
:100B1000241B350BE0914101F0914201E217F307EC
:100B2000A0F42E1B3F0B2817390778F0AC014E5F5D
:100B30005F4F2417350748F04E0F5F1F5093420157
:100B4000409341018193919302C0E0E0F0E0CF0136
:100B5000DF91CF911F910F910895CF93DF9300976D
:100B600009F481C0FC01329713821282A0914301E3
:100B7000B0914401109781F420813181820F931F3D
:100B800020914101309142012817390751F5F09326
:100B90004201E093410167C0ED0120E030E0CE1753
:100BA000DF0740F44A815B819E0141155105F1F058
:100BB000EA01F5CFD383C28340815181840F951F11
:100BC000C817D90759F488819981840F951F029617
:100BD000918380838A819B81938382832115310550
:100BE00029F4F0934401E09343013DC0E901FB8304
:100BF000EA8349915991C40FD51FEC17FD0761F4A1
:100C000080819181840F951F0296E90199838883E1
:100C1000828193819B838A83E0E0F0E012968D913C
:100C20009C911397009719F0FD01DC01F7CF8D918E
:100C30009C9111979D012E5F3F4F820F931F209132
:100C40004101309142012817390769F4309729F49E
:100C5000109244011092430102C013821282B09399
:100C60004201A0934101DF91CF910895F894FFCF05
:100C700000004501200054617374657220372069BB
:100C800073742053746172740A54617374657220B2
:100C900036206973742053746F7070284E6F726DB4
:100CA000616C290A5461737465722032206973740F
:100CB0002053746F707028496E746572757074205B
:100CC0007665726172626569746574206D697420FD
:100CD000494E5432290A004665686C6572005374A7
:100CE000617274206472FC636B656E3A0A004E692F
:100CF0006D6D2064696520426F7474656E20776540
:100D00006720756E64204265736368656973206E41
:100D10006963687421004465696E65205265616B82
:100D200074696F6E737A6569742073696E642000EC
:100D300073656B2E0A004665686C65722061756686
:0C0D4000676574726574656E210A00001E
:00000001FF
