:100000000C942A000C943C000C943C000C943C0092
:100010000C943C000C943C000C943C000C943C0070
:100020000C943C000C943C000C9480000C943E001A
:100030000C943C000C943C000C943C000C943C0050
:100040000C943C000C943C000C943C000C943C0040
:100050000C943C0011241FBECFE5D8E0DEBFCDBF1D
:1000600020E0A0E6B0E001C01D92A236B207E1F7A1
:100070000E94ED000C94F4000C9400001F920F926B
:1000800000905F000F9211242F933F938F939F93C3
:10009000EF93FF93CF93DF93CDB7DEB782E590E088
:1000A00026E0FC0120838091600090916100019620
:1000B0009093610080936000809160009091610056
:1000C000803D974071F4109261001092600085E3CA
:1000D00090E025E330E0F901308121E02327FC01A5
:1000E00020830000DF91CF91FF91EF919F918F913D
:1000F0003F912F910F9000925F000F901F901895E5
:100100001F920F9200905F000F9211242F933F9344
:100110008F939F93EF93FF93CF93DF93CDB7DEB78A
:1001200080916000909161000196909361008093AE
:1001300060008091600090916100803D974099F44B
:10014000109261001092600085E390E025E330E0BA
:10015000F901308121E02327FC0120838CE590E028
:100160002AEFFC0120830000DF91CF91FF91EF91F6
:100170009F918F913F912F910F9000925F000F9070
:100180001F901895CF93DF93CDB7DEB784E390E04F
:100190002FEFFC01208385E390E02FEFFC0120830B
:1001A000109261001092600082E590E0FC011082E4
:1001B0008CE590E02AEFFC01208383E590E023E0CA
:1001C000FC01208389E590E029E530E0F9012081F8
:1001D0002260FC0120837894FFCFCF93DF93CDB7CB
:0C01E000DEB70E94C200FFCFF894FFCFF2
:00000001FF
